:020000040800F2
:100000000020002045030008910300089103000828
:1000100000000000000000000000000000000000E0
:100020000000000000000000000000009103000834
:100030000000000000000000910300089103000888
:100040009103000891030008910300089103000840
:100050009103000891030008910300089103000830
:100060009103000891030008910300089103000820
:100070009103000891030008910300089103000810
:10008000910300089103000800000000910300089C
:1000900091030008910300089103000891030008F0
:1000A00091030008910300089103000891030008E0
:1000B0009103000800000000910300080000000008
:1000C0005FF808F180B582B000AF78600A1CFB1CB5
:1000D0001A70FB1C1B78002B06D0084B074A51698D
:1000E0007A680A435A6106E0044B044A5269796807
:1000F000C9430A405A61BD4602B080BD00100240AB
:1001000080B582B000AF78600A1CFB1C1A70FB1C23
:100110001B78002B06D0084B074AD1697A680A433E
:10012000DA6106E0044B044AD2697968C9430A409F
:10013000DA61BD4602B080BD0010024080B500AF5C
:1001400000F0BEF8564BFA2292001A80544B1B88DE
:100150005A1E131C9B009B181A01D31A181C6421E9
:1001600000F092FE031C9AB24E4B1A804C4B1B8837
:100170005A1E131C9B009B181A01D31A181C6421C9
:1001800000F082FE031C9AB2474B1A80444B1B8836
:100190005A1E131C9B009B181A01D31A181C6421A9
:1001A00000F072FE031C9AB2404B1A803C4B1B8835
:1001B0005A1E131C9B009B181A01D31A181C642189
:1001C00000F062FE031C9AB2394B1A800220012112
:1001D000FFF796FF374B30221A80364B00225A80A9
:1001E0002F4B1B881A1C334B5A60324B00221A814A
:1001F000304B00229A72304A2E4B101C191C00F012
:1002000069FA2E4B60221A802C4B01225A802B4B0C
:1002100004229A80294B00229A81284B0822DA81F5
:10022000264B802252001A82244B00225A821D4BF8
:100230001B881A1C214B9A601F4A204B101C191C4A
:1002400000F006FB184B1B881A1C1C4B9A601A4ABC
:100250001A4B101C191C00F0CDFB144B1B881A1CE8
:10026000164B9A60144A154B101C191C00F09EFC8A
:100270000F4B1B881A1C114B9A600F4A0F4B101C16
:10028000191C00F067FD0C4B181C012100F09AFAB4
:10029000094B181C012100F0B5FABD4680BDC046CF
:1002A0000400002006000020080000200A000020B2
:1002B0000C00002010000020000400401C00002062
:1002C00080B582B000AF80231B03181C0121FFF70B
:1002D000F9FE3B1CF02292001A603B1C02221A71AC
:1002E0003B1C00225A713B1C00229A713B1C0022CD
:1002F000DA71104A3B1C101C191C00F001F90D4B5F
:10030000181C0821012200F097F90A4B181C09213A
:10031000012200F091F9074B181C0621012200F080
:100320008BF9044B181C0721012200F085F9BD460A
:1003300002B080BD0008004880B500AFFFF7FEFEA8
:10034000FEE7C0460C488546002103E00B4B5B5896
:10035000435004310A480B4B42189A42F6D30A4ADA
:1003600002E0002313600432084B9A42F9D300F0F4
:1003700011F8FFF7E1FFFEE700200020280F00083A
:1003800000000020000000200000002030000020BD
:10039000FEE7000080B500AF1B4B1B4A126801212D
:1003A0000A431A60184B184A5168184A0A405A60A2
:1003B000154B154A1168164A0A401A60124B124A28
:1003C0001168144A0A401A600F4B0F4A5168124ACA
:1003D0000A405A600C4B0C4AD26A0F218A43DA62F7
:1003E000094B094A116B0D4A0A401A63064B064A2B
:1003F000526B01218A435A63034B00229A6000F03A
:100400000FF8BD4680BDC046001002400CB8FFF892
:10041000FFFFF6FEFFFFFBFFFFFFC0FFACFEFFFF8D
:1004200080B582B000AF00237B6000233B60314B7E
:10043000304A1268802149020A431A602D4B1A681B
:1004400080239B0213403B607B6801337B603B68E9
:10045000002B04D17A68A023DB019A42EED1254B10
:100460001A6880239B02134002D001233B6001E005
:1004700000233B603B68012B38D11F4B11221A60CF
:100480001C4B1C4A52685A601A4B1A4A52685A60EE
:10049000184B184A5168194A0A405A60154B154AB8
:1004A0005268882149030A435A60124B114A126864
:1004B000802149040A431A60C0460E4B1A68802303
:1004C0009B041340F9D00B4B0A4A526803218A431C
:1004D0005A60084B074A526802210A435A60C046D4
:1004E000044B5A680C231340082BF9D1BD4602B0C7
:1004F00080BDC0460010024000200240FFFFC0FF48
:1005000080B586B000AF7860396000237B6100233E
:100510003B610023FB6000237B6185E07B69012256
:10052000101C9840031C3B613B681B683A691340F0
:10053000FB60FA683B699A4273D13B681B79012BD7
:1005400003D03B681B79022B38D17B689B687A69A2
:1005500052000321081C9040021CD2431A407B68C1
:100560009A607B689A683B685B79191C7B695B00C1
:10057000081C9840031C1A437B689A607B689B8820
:100580009BB27A6992B20121081C9040021C92B27F
:10059000D24392B213409AB27B689A807B689B8860
:1005A0009AB23B689B79191C7B699BB2081C9840E6
:1005B000031C9BB213439AB27B689A807B681B68CA
:1005C0007A6952000321081C9040021CD2431A4051
:1005D0007B681A607B681A683B681B79191C7B6909
:1005E0005B00081C9840031C1A437B681A607B68F8
:1005F000DB687A6992B252000321081C9040021C09
:10060000D2431A407B68DA607B68DA683B68DB7942
:10061000191C7B695B00081C9840031C1A437B680B
:10062000DA607B6901337B617B690F2B00D875E74A
:10063000BD4606B080BDC04690B585B000AF7860BD
:10064000BB1C19807B1C1A700023FB600023BB605D
:100650007B1C1A78BB1C198807230B409B00111CBC
:1006600099400B1CFB60BB1C1B88DB089BB21A1C4F
:10067000BB1C1B88DB089BB2191C7B6808318900F6
:10068000CB58B91C08880721014089000F20041CA1
:100690008C40211CC94319407B6808329200D1501C
:1006A000BB1C1B88DB089BB21A1C7B6808329200BB
:1006B000D258FB681343BB60BB1C1B88DB089BB292
:1006C0001A1C7B6808329200B968D150BD4605B04B
:1006D00090BDC04680B584B000AF786039603B1CE7
:1006E0000E3300221A803B1C0E337A6812881A805F
:1006F0007A682D4B9A4208D07A688023DB059A42AB
:1007000003D07A68294B9A4210D13B1C0E333A1C15
:100710000E32128870218A431A803B6859883B1C2C
:100720000E333A1C0E3212880A431A807A68204B24
:100730009A4210D03B1C0E333A1C0E3211881D4ACF
:100740000A401A803B6819893B1C0E333A1C0E3252
:1007500012880A431A807B683A1C0E3212881A806B
:100760003B685A687B68DA623B681A887B681A853E
:100770007A680D4B9A420BD07A680F4B9A4207D099
:100780007A680E4B9A4203D07A680D4B9A4204D194
:100790003B689B7A1A1C7B681A867B6801229A82C6
:1007A000BD4604B080BDC046002C0140000400409E
:1007B00000100040FFFCFFFF0040014000440140EA
:1007C0000048014080B582B000AF78600A1CFB1C75
:1007D0001A70FB1C1B78002B08D07B681B889BB20F
:1007E000012213439AB27B681A8007E07B681B885A
:1007F0009BB2012293439AB27B681A80BD4602B035
:1008000080BDC04680B582B000AF78600A1CFB1C7A
:100810001A70FB1C1B78002B0AD07A684423D35A29
:100820009BB20A4A134399B27A684423D15209E031
:100830007A684423D35A9BB25B045B0C99B27A6802
:100840004423D152BD4602B080BDC0460080FFFFA8
:1008500080B584B000AF786039603B1C0A33002259
:100860001A803B1C0E3300221A803B1C0C330022E2
:100870001A807B681B8C9BB2012293439AB27B68DF
:100880001A843B1C0E337A68128C1A803B1C0C3382
:100890007A6892881A803B1C0A337A68128B1A8015
:1008A0003B1C0A333A1C0A32128870218A431A8090
:1008B0003B1C0A333A1C0A32128803218A431A80ED
:1008C0003B6819883B1C0A333A1C0A3212880A43D7
:1008D0001A803B1C0E333A1C0E32128802218A43C6
:1008E0001A803B6899893B1C0E333A1C0E321288E1
:1008F0000A431A803B6859883B1C0E333A1C0E325F
:1009000012880A431A807A68344B9A420BD07A686C
:10091000334B9A4207D07A68324B9A4203D07A68B6
:10092000314B9A4243D13B1C0E333A1C0E32128893
:1009300008218A431A803B68D9893B1C0E333A1C34
:100940000E3212880A431A803B1C0E333A1C0E32B8
:10095000128804218A431A803B6899883B1C0E3315
:100960003A1C0E3212880A431A803B1C0C333A1C84
:100970000C3211881D4A0A401A803B1C0C333A1C69
:100980000C3211881A4A0A401A803B68198A3B1CAB
:100990000C333A1C0C3212880A431A803B68598A7D
:1009A0003B1C0C333A1C0C3212880A431A807B68B9
:1009B0003A1C0C3212889A807B683A1C0A321288E0
:1009C0001A833B689A687B685A637B683A1C0E32CC
:1009D00012881A84BD4604B080BDC046002C014078
:1009E000004001400044014000480140FFFEFFFF7D
:1009F000FFFDFFFF80B584B000AF786039603B1C1D
:100A00000A3300221A803B1C0E3300221A803B1C42
:100A10000C3300221A807B681B8C9BB210229343FC
:100A20009AB27B681A843B1C0E337A68128C1A8047
:100A30003B1C0C337A6892881A803B1C0A337A6814
:100A4000128B1A803B1C0A333A1C0A321188514A15
:100A50000A401A803B1C0A333A1C0A3211884E4A5B
:100A60000A401A803B681B881B0299B23B1C0A3360
:100A70003A1C0A3212880A431A803B1C0E333A1C75
:100A80000E32128820218A431A803B689B891B0101
:100A900099B23B1C0E333A1C0E3212880A431A805C
:100AA0003B685B881B0199B23B1C0E333A1C0E322B
:100AB00012880A431A807A68384B9A4203D07A68BF
:100AC000374B9A424FD13B1C0C333A1C0C321188E5
:100AD000344A0A401A803B681B8A9B0099B23B1C2F
:100AE0000C333A1C0C3212880A431A807A682B4B5A
:100AF0009A4238D13B1C0E333A1C0E3212888021A8
:100B00008A431A803B68DB891B0199B23B1C0E3378
:100B10003A1C0E3212880A431A803B1C0E333A1CD0
:100B20000E32128840218A431A803B689B881B0141
:100B300099B23B1C0E333A1C0E3212880A431A80BB
:100B40003B1C0C333A1C0C321188174A0A401A809D
:100B50003B685B8A9B0099B23B1C0C333A1C0C32FD
:100B600012880A431A807B683A1C0C3212889A80D9
:100B70007B683A1C0A3212881A833B689A687B6841
:100B80009A637B683A1C0E3212881A84BD4604B000
:100B900080BDC046FF8FFFFFFFFCFFFF002C014020
:100BA00000400140FFFBFFFFFFF7FFFF80B584B06F
:100BB00000AF786039603B1C0A3300221A803B1C6E
:100BC0000E3300221A803B1C0C3300221A807B68F3
:100BD0001B8C9AB2584B13409AB27B681A843B1C08
:100BE0000E337A68128C1A803B1C0C337A68928818
:100BF0001A803B1C0A337A68928B1A803B1C0A339A
:100C00003A1C0A32128870218A431A803B1C0A332C
:100C10003A1C0A32128803218A431A803B681988D9
:100C20003B1C0A333A1C0A3212880A431A803B1CC6
:100C30000E333A1C0E321188404A0A401A803B6833
:100C40009B891B0299B23B1C0E333A1C0E32128850
:100C50000A431A803B685B881B0299B23B1C0E3327
:100C60003A1C0E3212880A431A807A68344B9A4230
:100C70004BD13B1C0E333A1C0E321188314A0A40CC
:100C80001A803B68DB891B0299B23B1C0E333A1C6D
:100C90000E3212880A431A803B1C0E333A1C0E3265
:100CA0001188294A0A401A803B689B881B0299B226
:100CB0003B1C0E333A1C0E3212880A431A803B1C2E
:100CC0000C333A1C0C321188204A0A401A803B1C13
:100CD0000C333A1C0C3211881D4A0A401A803B68BA
:100CE0001B8A1B0199B23B1C0C333A1C0C32128834
:100CF0000A431A803B685B8A1B0199B23B1C0C3388
:100D00003A1C0C3212880A431A807B683A1C0C3257
:100D100012889A807B683A1C0A3212889A833B6850
:100D20009A687B68DA637B683A1C0E3212881A84F0
:100D3000BD4604B080BDC046FFFEFFFFFFFDFFFFC4
:100D4000002C0140FFF7FFFFFFFBFFFFFFEFFFFF5E
:100D5000FFDFFFFF80B584B000AF786039603B1CD7
:100D60000C3300221A803B1C0A3300221A803B1CE1
:100D70000E3300221A807B681B8C9AB23C4B1340C6
:100D80009AB27B681A843B1C0A337A68128C1A80E8
:100D90003B1C0E337A6892881A803B1C0C337A68AD
:100DA000928B1A803B1C0C333A1C0C321188314A4E
:100DB0000A401A803B1C0C333A1C0C3211882E4A14
:100DC0000A401A803B681B881B0299B23B1C0C33FB
:100DD0003A1C0C3212880A431A803B1C0A333A1C14
:100DE0000A321188254A0A401A803B689B891B03F6
:100DF00099B23B1C0A333A1C0A3212880A431A8001
:100E00003B685B881B0399B23B1C0A333A1C0A32CD
:100E100012880A431A807A68194B9A4212D13B1CF5
:100E20000E333A1C0E321188164A0A401A803B686B
:100E30001B8A9B0199B23B1C0E333A1C0E3212885E
:100E40000A431A807B683A1C0E3212889A807B68AB
:100E50003A1C0C3212889A833B689A687B681A6441
:100E60007B683A1C0A3212881A84BD4604B080BDE1
:100E7000FFEFFFFFFF8FFFFFFFFCFFFFFFDFFFFF25
:100E8000002C0140FFBFFFFF002934D001230022C6
:100E900010B488422CD301242407A14204D28142F9
:100EA00002D209011B01F8E7E400A14204D2814209
:100EB00002D249005B00F8E7884201D3401A1A4386
:100EC0004C08A04202D3001B5C0822438C08A042BD
:100ED00002D3001B9C082243CC08A04202D3001B73
:100EE000DC082243002803D01B0901D00909E3E7ED
:100EF000101C10BC7047002801D00020C04307B46C
:100F0000024802A14018029003BDC046190000002B
:100F10000029F0D003B5FFF7B9FF0EBC4243891A90
:080F20001847C0467047C046A7
:0400000508000000EF
:00000001FF
