:020000040800F2
:100000000020002065080008B1080008B1080008B9
:1000100000000000000000000000000000000000E0
:10002000000000000000000000000000B10800080F
:100030000000000000000000B1080008B10800083E
:10004000B1080008B1080008B1080008B1080008AC
:10005000B1080008B1080008B1080008B10800089C
:10006000B1080008B1080008B1080008B10800088C
:10007000B1080008B1080008B1080008B10800087C
:10008000B1080008B108000800000000B10800082D
:10009000B1080008B1080008B1080008B10800085C
:1000A000B1080008B1080008B1080008CD05000833
:1000B000B108000800000000B108000800000000BE
:1000C0005FF808F180B588B000AF78600023FB616D
:1000D0000023BB6100237B6100233B610023FB60A5
:1000E000654B5A680C231340FB61FB69042B07D056
:1000F000082B09D0002B30D17B68604A1A6030E0B1
:100100007B685E4A1A602CE05B4B5A68F0239B03C5
:100110001340BB61584B5A6880235B0213407B61DC
:10012000BB699B0C0233BB617B69002B05D1BB69AA
:10013000534A5A437B681A6013E04F4BDA6A0F2325
:10014000134001333B614D48396901F009FB031C41
:10015000BA695A437B681A6003E07B68474A1A60B1
:10016000C046454B5A68F0231340FB61FB691B09ED
:10017000FB61444AFB69D3181B78DBB2FB607B68E8
:100180001A68FB68DA407B685A603B4B5A68E02388
:10019000DB001340FB61FB691B0AFB61394AFB6909
:1001A000D3181B78DBB2FB607B685A68FB68DA40C7
:1001B0007B689A60304B1A6B80235B00134003D13D
:1001C0007B68314ADA6010E02B4B5A688023DB01F0
:1001D000134005D17B689B685A087B68DA6004E0AD
:1001E0007B689B689A087B68DA60234B1A6B402314
:1001F000134003D17B68254A1A6103E07B688022A3
:1002000012021A611C4B1A6B1023134003D17B6836
:100210001A4A5A6103E07B681A687B685A61164B78
:100220001A6B0323134004D17B689A687B689A6138
:100230001EE0114B1A6B03231340012B04D17B6882
:100240001A687B689A6113E00B4B1A6B0323134007
:10025000022B04D17B68802212029A6108E0064BCF
:100260001A6B03231340032B02D17B68034A9A6164
:10027000BD4608B080BDC0460010024000127A00A2
:1002800000093D0000000020809FD5001280000082
:1002900080B582B000AF78600A1CFB1C1A70FB1C92
:1002A0001B78002B06D0084B074A51697A680A432D
:1002B0005A6106E0044B044A52697968C9430A400E
:1002C0005A61BD4602B080BD0010024080B582B0C8
:1002D00000AF78600A1CFB1C1A70FB1C1B78002BFB
:1002E00006D0084B074A91697A680A439A6106E08A
:1002F000044B044A92697968C9430A409A61BD4631
:1003000002B080BD0010024080B582B000AF021C78
:10031000FB1D1A70064BFA1D1278111C1F220A4091
:100320000121081C9040021C1A60BD4602B080BD2D
:1003300000E100E080B500AF2C4BFA2292001A8059
:1003400080231B01181C0121FFF7C0FF284B30221E
:100350001A80274B00225A80244B1B881A1C244BDE
:100360005A60234B01221A81214B00229A72214AA2
:100370001F4B101C191C00F0E9FD1F4B60221A8056
:100380001D4B01225A801C4B00229A811A4B1B4A9A
:100390009A60184A184B101C191C00F095FE164B59
:1003A000164A9A60134A144B101C191C00F05EFF89
:1003B000114B124A9A600F4A0F4B101C191C01F086
:1003C00031F80D4B0D4A9A600A4A0B4B101C191C50
:1003D00001F0FCF8074B181C012100F02FFE054B23
:1003E000181C002100F04AFEBD4680BD140000200C
:1003F00018000020002C014044000020830300006E
:1004000080B500AFF0235B03181C0121FFF740FF0C
:100410003A4BBC2252001A60384B01221A71374BFA
:1004200000229A71354B00225A71344B0022DA7146
:10043000334A324B101C191C00F0F2FA314B0422E3
:100440001A60304B01221A712E4B00229A712D4BEB
:1004500000225A712B4B0022DA712B4A294B101CB7
:10046000191C00F0DDFA294BD82252011A60274BE3
:1004700001221A71254B00229A71244B00225A71D5
:10048000224B0022DA71224A204B101C191C00F06A
:10049000C7FA204BF02212011A601E4B02221A7179
:1004A0001C4B00225A711B4B00229A71194B0022DF
:1004B000DA719023DA05174B101C191C00F0B0FA02
:1004C0009023DB05181C0821022200F061FB902319
:1004D000DB05181C0921022200F05AFB9023DB05E2
:1004E000181C0A21022200F053FB9023DB05181C84
:1004F0000B21022200F04CFBBD4680BD34000020E1
:10050000000400482C000020000C00485800002087
:10051000000800483C00002080B500AF8023DB01CC
:10052000181C0121FFF7D2FE8023DB02181C0121D9
:10053000FFF7AEFE204B80221A601F4B00225A713B
:100540001D4B02221A711C4B0022DA711B4A1A4BF6
:10055000101C191C00F064FA184B181C072100220B
:1005600000F016FB164B962292011A60144B0022E3
:100570005A60134B00229A60114B0022DA60104B34
:1005800004221A610E4B00225A610E4A0C4B101CB9
:10059000191C00F04BFB0B4A0B4B101C191C0122C1
:1005A00000F020FC1B20FFF7AFFE064B181C0121BA
:1005B00000F0ECFBBD4680BD240000200004004894
:1005C00060000020003801400501050080B582B0C0
:1005D00000AF974A974B101C191C00F045FC031CF8
:1005E000002B00D121E1924A924B101C191C00F003
:1005F00095FC8F4B181C00F0E7FB031C1A1CFB1D1D
:100600001A70FB1D1B784F2B0CD18B4B181C002133
:1006100000F034FD894AC0239B00101C191C00F017
:100620009BFA02E1FB1D1B78572B3CD1844A942393
:100630005B00101C191C00F09DFA804A90235B019E
:10064000101C191C00F096FA7D4B181C502100F06C
:1006500083FA7C4B181C042100F07EFA774A902321
:100660001B01101C191C00F077FA734A764B101C02
:10067000191C01F045F8704A734B101C191C01F04D
:100680004BF86D4A704B101C191C01F051F86A4A66
:100690006D4B101C191C01F057F8674B181C0121F9
:1006A00000F0ECFCC1E0FB1D1B78532B3CD1644AED
:1006B00094235B00101C191C00F04EFA5F4A902333
:1006C0005B01101C191C00F047FA5D4B181C5021EF
:1006D00000F050FA5B4B181C042100F04BFA574A0B
:1006E00090231B01101C191C00F044FA524A564B6F
:1006F000101C191C01F004F84F4A534B101C191C14
:1007000001F00AF84C4A504B101C191C01F010F86B
:10071000494A4D4B101C191C01F016F8464B181C89
:10072000012100F0ABFC80E0FB1D1B78442B3CD189
:10073000434A94235B00101C191C00F01BFA3F4A2B
:1007400090235B01101C191C00F014FA3C4B181C80
:10075000502100F001FA3B4B181C042100F0FCF979
:10076000364A90231B01101C191C00F0F5F9324A7F
:10077000364B101C191C00F0C3FF2F4A334B101CC2
:10078000191C00F0C9FF2C4A2F4B101C191C00F03B
:10079000CFFF294A2C4B101C191C00F0D5FF264B0B
:1007A000181C012100F06AFC3FE0FB1D1B78412B67
:1007B0003BD1234A94235B00101C191C00F0DAF98A
:1007C0001E4A90235B01101C191C00F0D3F91C4B2E
:1007D000181C502100F0C0F91A4B181C042100F01D
:1007E000BBF9164A90231B01101C191C00F0B4F928
:1007F000114A154B101C191C00F082FF0E4A124BB7
:10080000101C191C00F088FF0B4A104B101C191CFF
:1008100000F08EFF084A0D4B101C191C00F094FFCD
:10082000054B181C012100F029FCBD4602B080BD1B
:100830000038014005010500002C01400008004877
:1008400000040048000C0048830300008F010000F2
:1008500080B500AFFFF7D4FDFFF75EFEFFF76AFD3E
:10086000FEE7C0460C488546002103E00B4B5B5871
:10087000435004310A480B4B42189A42F6D30A4AB5
:1008800002E0002313600432084B9A42F9D300F0CF
:1008900011F8FFF7DDFFFEE7002000200018000838
:1008A0000000002010000020100000207800002030
:1008B000FEE7000080B500AF1B4B1B4A1268012108
:1008C0000A431A60184B184A5168184A0A405A607D
:1008D000154B154A1168164A0A401A60124B124A03
:1008E0001168144A0A401A600F4B0F4A5168124AA5
:1008F0000A405A600C4B0C4AD26A0F218A43DA62D2
:10090000094B094A116B0D4A0A401A63064B064A05
:10091000526B01218A435A63034B00229A6000F014
:100920000FF8BD4680BDC046001002400CB8FFF86D
:10093000FFFFF6FEFFFFFBFFFFFFC0FFACFEFFFF68
:1009400080B582B000AF00237B6000233B60314B59
:10095000304A1268802149020A431A602D4B1A68F6
:1009600080239B0213403B607B6801337B603B68C4
:10097000002B04D17A68A023DB019A42EED1254BEB
:100980001A6880239B02134002D001233B6001E0E0
:1009900000233B603B68012B38D11F4B11221A60AA
:1009A0001C4B1C4A52685A601A4B1A4A52685A60C9
:1009B000184B184A5168194A0A405A60154B154A93
:1009C0005268882149030A435A60124B114A12683F
:1009D000802149040A431A60C0460E4B1A688023DE
:1009E0009B041340F9D00B4B0A4A526803218A43F7
:1009F0005A60084B074A526802210A435A60C046AF
:100A0000044B5A680C231340082BF9D1BD4602B0A1
:100A100080BDC0460010024000200240FFFFC0FF22
:100A200080B586B000AF7860396000237B61002319
:100A30003B610023FB6000237B6185E07B69012231
:100A4000101C9840031C3B613B681B683A691340CB
:100A5000FB60FA683B699A4273D13B681B79012BB2
:100A600003D03B681B79022B38D17B689B687A697D
:100A700052000321081C9040021CD2431A407B689C
:100A80009A607B689A683B685B79191C7B695B009C
:100A9000081C9840031C1A437B689A607B689B88FB
:100AA0009BB27A6992B20121081C9040021C92B25A
:100AB000D24392B213409AB27B689A807B689B883B
:100AC0009AB23B689B79191C7B699BB2081C9840C1
:100AD000031C9BB213439AB27B689A807B681B68A5
:100AE0007A6952000321081C9040021CD2431A402C
:100AF0007B681A607B681A683B681B79191C7B69E4
:100B00005B00081C9840031C1A437B681A607B68D2
:100B1000DB687A6992B252000321081C9040021CE3
:100B2000D2431A407B68DA607B68DA683B68DB791D
:100B3000191C7B695B00081C9840031C1A437B68E6
:100B4000DA607B6901337B617B690F2B00D875E725
:100B5000BD4606B080BDC04680B582B000AF7860AB
:100B60000A1CBB1C1A80BB1C1A887B689A61BD4694
:100B700002B080BD80B582B000AF78600A1CBB1C9B
:100B80001A807B68BA1C12881A85BD4602B080BDE7
:100B900090B585B000AF7860BB1C19807B1C1A70C3
:100BA0000023FB600023BB607B1C1A78BB1C1988E8
:100BB00007230B409B00111C99400B1CFB60BB1CC6
:100BC0001B88DB089BB21A1CBB1C1B88DB089BB272
:100BD000191C7B6808318900CB58B91C088807218B
:100BE000014089000F20041C8C40211CC94319407E
:100BF0007B6808329200D150BB1C1B88DB089BB27B
:100C00001A1C7B6808329200D258FB681343BB6001
:100C1000BB1C1B88DB089BB21A1C7B680832920045
:100C2000B968D150BD4605B090BDC04680B58CB006
:100C300000AF786039600023FB620023BB620023B1
:100C40007B627B681B680122191C91430A1C7B682C
:100C50001A607B685B687B627A6A474B13407B62F1
:100C60003B689B687A6A13437B627B687A6A5A6046
:100C70007B681B687B627A6A404B13407B623B68EF
:100C80005A683B68DB681A433B681B6913437A6AFE
:100C900013437B627B687A6A1A607B689B687B621D
:100CA0007A6A374B13407B623B685B697A6A13430D
:100CB0007B627B687A6A9A603B1C0833181CFFF7DA
:100CC00001FA7A682F4B9A4204D13B1C08339B6986
:100CD000BB6203E03B1C08339B68BB627B681A68FD
:100CE00080231B02134014D0BB6A5A003B681B6868
:100CF000101C191C00F034FD031CFB62BB6A5A0077
:100D00003B681B68101C191C00F06EFD0B1C7B62FD
:100D100010E03B681B68B86A191C00F021FD031C39
:100D2000FB623B681B68BA6A101C191C00F05CFD72
:100D30000B1C7B623B681B685A087B6A9A4202D88C
:100D4000FB6A0133FB627B681A6880231B02134035
:100D50000AD0FA6A0F2313405B087B62FA6A0A4BD7
:100D60001A407B6A1343FB62FB6A9AB27B689A81E2
:100D7000BD460CB080BDC046FFCFFFFFF3E9FFFFCB
:100D8000FFFCFFFF00380140F0FF000080B582B09B
:100D900000AF78600A1CFB1C1A70FB1C1B78002B30
:100DA00006D07B681B6801221A437B681A6007E043
:100DB0007B681B680122191C91430A1C7B681A601E
:100DC000BD4602B080BDC04680B582B000AF78603D
:100DD0007B689B8C9BB2DB05DB0D9BB2181CBD4670
:100DE00002B080BD80B588B000AFF860B960FB1D6F
:100DF0001A700023BB6100237B6100233B61002349
:100E0000FB61FB68FB61BB689BB21B0A9BB2BB61C9
:100E1000BA68FF2313407B617B690122111C994052
:100E20000B1C3B61BB69022B03D1FB690433FB61E3
:100E300005E0BB69032B02D1FB690833FB61FB1D95
:100E40001B78002B06D0FB69FA6911683A690A43DE
:100E50001A6006E0FB69FA6912683969C9430A40F9
:100E60001A60BD4608B080BD80B586B000AF78601E
:100E700039600023FB6000237B610023BB603B1CC7
:100E8000133300221A703B689BB21B0A9BB2BB60F3
:100E90003A68FF2313407B617B690122111C994052
:100EA0000B1C7B61BB68012B05D17B681A687B69D1
:100EB00013407B610DE0BB68022B05D17B685A684B
:100EC0007B6913407B6104E07B689A687B6913400F
:100ED0007B613B681B0CFB60FB680122111C994085
:100EE0000B1CFB607B68DA69FB681340FB607B6965
:100EF000002B07D0FB68002B04D03B1C13330122CE
:100F00001A7003E03B1C133300221A703B1C13338E
:100F10001B78181CBD4606B080BDC04680B584B0A5
:100F200000AF786039600023FB600023BB603B6842
:100F30001B0CFB60FB680122111C99400B1CBB6061
:100F40007B68BA681A62BD4604B080BD80B584B0C3
:100F500000AF786039603B1C0E3300221A803B1CC6
:100F60000E337A6812881A807A682D4B9A4208D01C
:100F70007A688023DB059A4203D07A68294B9A422B
:100F800010D13B1C0E333A1C0E32128870218A435A
:100F90001A803B6859883B1C0E333A1C0E3212886B
:100FA0000A431A807A68204B9A4210D03B1C0E33B9
:100FB0003A1C0E3211881D4A0A401A803B68198972
:100FC0003B1C0E333A1C0E3212880A431A807B688F
:100FD0003A1C0E3212881A803B685A687B68DA62C3
:100FE0003B681A887B681A857A680D4B9A420BD049
:100FF0007A680F4B9A4207D07A680E4B9A4203D018
:101000007A680D4B9A4204D13B689B7A1A1C7B6824
:101010001A867B6801229A82BD4604B080BDC04614
:10102000002C01400004004000100040FFFCFFFFC6
:1010300000400140004401400048014080B582B0BA
:1010400000AF78600A1CFB1C1A70FB1C1B78002B7D
:1010500008D07B681B889BB2012213439AB27B683D
:101060001A8007E07B681B889BB2012293439AB2E7
:101070007B681A80BD4602B080BDC04680B582B094
:1010800000AF78600A1CFB1C1A70FB1C1B78002B3D
:101090000AD07A684423D35A9BB20A4A134399B2BE
:1010A0007A684423D15209E07A684423D35A9BB228
:1010B0005B045B0C99B27A684423D152BD4602B0FE
:1010C00080BDC0460080FFFF80B584B000AF78606F
:1010D00039603B1C0A3300221A803B1C0E3300226D
:1010E0001A803B1C0C3300221A807B681B8C9BB23D
:1010F000012293439AB27B681A843B1C0E337A68B0
:10110000128C1A803B1C0C337A6892881A803B1C24
:101110000A337A68128B1A803B1C0A333A1C0A3253
:10112000128870218A431A803B1C0A333A1C0A3207
:10113000128803218A431A803B6819883B1C0A33B2
:101140003A1C0A3212880A431A803B1C0E333A1C9E
:101150000E32128802218A431A803B6899893B1C0F
:101160000E333A1C0E3212880A431A803B685988A3
:101170003B1C0E333A1C0E3212880A431A807A68DE
:10118000344B9A420BD07A68334B9A4207D07A6834
:10119000324B9A4203D07A68314B9A4243D13B1C7E
:1011A0000E333A1C0E32128808218A431A803B689B
:1011B000D9893B1C0E333A1C0E3212880A431A801E
:1011C0003B1C0E333A1C0E32128804218A431A80CB
:1011D0003B6899883B1C0E333A1C0E3212880A4336
:1011E0001A803B1C0C333A1C0C3211881D4A0A40F1
:1011F0001A803B1C0C333A1C0C3211881A4A0A40E4
:101200001A803B68198A3B1C0C333A1C0C3212883A
:101210000A431A803B68598A3B1C0C333A1C0C3237
:1012200012880A431A807B683A1C0C3212889A8012
:101230007B683A1C0A3212881A833B689A687B687A
:101240005A637B683A1C0E3212881A84BD4604B079
:1012500080BDC046002C01400040014000440140D8
:1012600000480140FFFEFFFFFFFDFFFF80B584B097
:1012700000AF786039603B1C0A3300221A803B1CA7
:101280000E3300221A803B1C0C3300221A807B682C
:101290001B8C9BB2102293439AB27B681A843B1C2E
:1012A0000E337A68128C1A803B1C0C337A68928851
:1012B0001A803B1C0A337A68128B1A803B1C0A3353
:1012C0003A1C0A321188514A0A401A803B1C0A33E0
:1012D0003A1C0A3211884E4A0A401A803B681B8821
:1012E0001B0299B23B1C0A333A1C0A3212880A4389
:1012F0001A803B1C0E333A1C0E32128820218A437E
:101300001A803B689B891B0199B23B1C0E333A1C27
:101310000E3212880A431A803B685B881B0199B21F
:101320003B1C0E333A1C0E3212880A431A807A682C
:10133000384B9A4203D07A68374B9A424FD13B1CC4
:101340000C333A1C0C321188344A0A401A803B682C
:101350001B8A9B0099B23B1C0C333A1C0C3212883E
:101360000A431A807A682B4B9A4238D13B1C0E33C1
:101370003A1C0E32128880218A431A803B68DB892E
:101380001B0199B23B1C0E333A1C0E3212880A43E1
:101390001A803B1C0E333A1C0E32128840218A43BD
:1013A0001A803B689B881B0199B23B1C0E333A1C88
:1013B0000E3212880A431A803B1C0C333A1C0C3242
:1013C0001188174A0A401A803B685B8A9B0099B2D1
:1013D0003B1C0C333A1C0C3212880A431A807B687F
:1013E0003A1C0C3212889A807B683A1C0A321288A6
:1013F0001A833B689A687B689A637B683A1C0E3252
:1014000012881A84BD4604B080BDC046FF8FFFFF1E
:10141000FFFCFFFF002C014000400140FFFBFFFFED
:10142000FFF7FFFF80B584B000AF786039603B1CE8
:101430000A3300221A803B1C0E3300221A803B1C08
:101440000C3300221A807B681B8C9AB2584B1340D5
:101450009AB27B681A843B1C0E337A68128C1A800D
:101460003B1C0C337A6892881A803B1C0A337A68DA
:10147000928B1A803B1C0A333A1C0A321288702164
:101480008A431A803B1C0A333A1C0A321288032111
:101490008A431A803B6819883B1C0A333A1C0A327B
:1014A00012880A431A803B1C0E333A1C0E321188F4
:1014B000404A0A401A803B689B891B0299B23B1C38
:1014C0000E333A1C0E3212880A431A803B685B883E
:1014D0001B0299B23B1C0E333A1C0E3212880A438F
:1014E0001A807A68344B9A424BD13B1C0E333A1C1B
:1014F0000E321188314A0A401A803B68DB891B0290
:1015000099B23B1C0E333A1C0E3212880A431A80E1
:101510003B1C0E333A1C0E321188294A0A401A80AD
:101520003B689B881B0299B23B1C0E333A1C0E325F
:1015300012880A431A803B1C0C333A1C0C32118867
:10154000204A0A401A803B1C0C333A1C0C3211888A
:101550001D4A0A401A803B681B8A1B0199B23B1C3A
:101560000C333A1C0C3212880A431A803B685B8A9F
:101570001B0199B23B1C0C333A1C0C3212880A43F3
:101580001A807B683A1C0C3212889A807B683A1C5D
:101590000A3212889A833B689A687B68DA637B68B0
:1015A0003A1C0E3212881A84BD4604B080BDC04673
:1015B000FFFEFFFFFFFDFFFF002C0140FFF7FFFFD5
:1015C000FFFBFFFFFFEFFFFFFFDFFFFF80B584B0F2
:1015D00000AF786039603B1C0C3300221A803B1C42
:1015E0000A3300221A803B1C0E3300221A807B68CB
:1015F0001B8C9AB23C4B13409AB27B681A843B1CFA
:101600000A337A68128C1A803B1C0E337A689288EF
:101610001A803B1C0C337A68928B1A803B1C0C336B
:101620003A1C0C321188314A0A401A803B1C0C3398
:101630003A1C0C3211882E4A0A401A803B681B88DB
:101640001B0299B23B1C0C333A1C0C3212880A4321
:101650001A803B1C0A333A1C0A321188254A0A4078
:101660001A803B689B891B0399B23B1C0A333A1CC6
:101670000A3212880A431A803B685B881B0399B2BE
:101680003B1C0A333A1C0A3212880A431A807A68D1
:10169000194B9A4212D13B1C0E333A1C0E32118860
:1016A000164A0A401A803B681B8A9B0199B23B1C70
:1016B0000E333A1C0E3212880A431A807B683A1C99
:1016C0000E3212889A807B683A1C0C3212889A83F8
:1016D0003B689A687B681A647B683A1C0A321288F5
:1016E0001A84BD4604B080BDFFEFFFFFFF8FFFFFF0
:1016F000FFFCFFFFFFDFFFFF002C0140FFBFFFFFEC
:1017000080B582B000AF786039607B683A685A6310
:10171000BD4602B080BDC04680B582B000AF7860E3
:1017200039607B683A689A63BD4602B080BDC046A6
:1017300080B582B000AF786039607B683A68DA6360
:10174000BD4602B080BDC04680B582B000AF7860B3
:1017500039607B683A681A64BD4602B080BDC046F5
:10176000002934D00123002210B488422CD3012454
:101770002407A14204D2814202D209011B01F8E7E9
:10178000E400A14204D2814202D249005B00F8E7A2
:10179000884201D3401A1A434C08A04202D3001BCE
:1017A0005C0822438C08A04202D3001B9C08224301
:1017B000CC08A04202D3001BDC082243002803D03F
:1017C0001B0901D00909E3E7101C10BC7047002871
:1017D00001D00020C04307B4024802A14018029083
:1017E00003BDC046190000000029F0D003B5FFF783
:1017F000B9FF0EBC4243891A1847C0467047C0461D
:1018000000000000010203040102030406070809A6
:0400000508000000EF
:00000001FF
